:020000040800F2
:10000000F8270020350200081338000831360008B0
:1000100011380008231D00085741000800000000A7
:10002000000000000000000000000000F53C000897
:10003000251D00080000000015380008F73C0008E6
:100040004F0200084F0200084F0200084F0200084C
:100050004F0200084F0200084F0200084F0200083C
:100060004F0200084F0200084F0200084F0200082C
:100070004F0200084F0200084F0200084F0200081C
:100080004F0200084F0200084F0200084F0200080C
:100090004F0200084F0200084F0200084F020008FC
:1000A0004F0200085D3D00084F0200084F020008A3
:1000B000693D00084F020008000000004F020008E0
:1000C0004F02000800000000000000004F0200087E
:1000D000000000004F0200088540000800000000FA
:1000E0004F0200084F0200084F02000800F002F81B
:1000F00000F090F80AA090E8000C82448344AAF132
:100100000107DA4501D100F085F8AFF2090EBAE82F
:100110000F0013F0010F18BFFB1A43F0010318473B
:100120005061000070610000103A24BF78C878C1A7
:10013000FAD8520724BF30C830C144BF04680C60ED
:10014000704700000023002400250026103A28BF35
:1001500078C1FBD8520728BF30C148BF0B60704739
:100160006E2900F06E83702900F0C784662905F0BF
:10017000BB86652905F0B886672905F0B586612933
:1001800005F0B48603681B0A28BF41F08001692985
:1001900000F0C280642900F0BF80752900F0BC80A7
:1001A0006F2900F05484782900F09384E92900F045
:1001B000EF83E42900F0EC83F52900F0E983EF29CF
:1001C00000F05184F82900F092840368DB0928BF0D
:1001D00041F08001632900F07083732900F075837A
:1001E000E32901F09380F32901F098800020704703
:1001F0001FB501F003F904000020002105F05EFEA8
:10020000401C60600020002105F042FEE0601FBD40
:1002100010B510BD01F0C4F81146FFF7E9FF05F075
:10022000DFFB01F0A1F903B4FFF7F2FF03BC01F01B
:10023000A9F900000948804709480047FEE7FEE7A2
:10024000FEE7FEE7FEE7FEE7FEE7FEE7FEE7FEE786
:1002500004480549054A064B70470000593D00080F
:10026000ED000008F8160020F8270020F81F0020F5
:10027000F81F00201CB50C46064B7B4469460090D5
:10028000204600F0F8FA04460020694600F006FB1C
:1002900020461CBD1F0600000FB41CB5084B06AA63
:1002A0007B4469460090059800F0E5FA044600207A
:1002B000694600F0F3FA20461CBC5DF814FB000010
:1002C000F905000070B50C460546012A05D02878CE
:1002D000800600D5EA69002302E0012305E05B1CEB
:1002E000934202D2E05C0028F9D1A869E618C01A4E
:1002F000A861286A18442862284600F010FA04E031
:10030000D5E9012114F8010B9047B442F8D32846EF
:1003100000F01BFA70BD00002DE9F04106460024F4
:1003200010687529314616A510D000F01FFA002874
:1003300002DA404213A507E031688A0701D512A509
:1003400002E0490704D511A5012401E000F017FAE5
:1003500000210A2206F1240709E0B0FBF2FCB0FB01
:10036000F2F302FB1C00303078541846491C002878
:10037000F3D123462A463046BDE8F04100F008BAE2
:10038000000000002D0000002B00000020000000F5
:100390002DE9F05F894604464FF0000ADFF874B19A
:1003A000FB44C0F820A02046E1688847002874D0AC
:1003B000252806D0D4E901219047206A401C2062FC
:1003C000F1E700265F462046E16888472028054679
:1003D00007DB312D05D2781910F8200C08B106433F
:1003E000F1E7B00701D526F00406C4F81CA00027E9
:1003F000C4F818A02A2D09D0284603F0D1FE38B33E
:1004000004EB8708303DC8F8185019E059F8041B70
:10041000204604EB87029161E1688847012F054679
:1004200018D1E069002820DA26F020061DE0D8F86F
:10043000180000EB800005EB40003038C8F81800C9
:100440002046E1688847054603F0AAFE0028EED161
:10045000012F0AD02E2D08D12046E16888477F1C45
:100460000546022F46F02006C4DBA069002803DA07
:10047000404246F00106A061F00701D026F01006C8
:100480006C2D0BD0682D09D04C2D39D06A2D35D06C
:10049000742D35D07A2D33D016E038E0E1682F4640
:1004A00020468847B842054609D16C2F26D04FF424
:1004B0008060E168064320468847054604E06C2FCB
:1004C0001AD04FF4807006430DB3A5F141001928EE
:1004D00002D8203546F400664A4629462046266062
:1004E0004E46FFF73DFE80B101280BD0F61D26F0E9
:1004F000070000F1080956E74020E4E78020D8E72C
:100500000020D6E706F104094DE7284652E7206AA5
:10051000BDE8F09F745C0000014A00F0F9BA0000E9
:100520006800002030B505460B462A4613F8014BFB
:1005300012F8010B08B1A042F8D01CB1002802D07B
:100540006D1CF1E7284630BD40EA0103024630B594
:100550009B0710D14FF0013400E008C208C91D1BF1
:100560009D4315EAC41FF8D013F0FF0102F8011BE8
:100570000DD01B0AF8E711F8013B002B02F8013BF4
:1005800005D011F8013B002B02F8013BF3D130BD3F
:1005900010B5431C02E010F8011B71B18107FAD1BC
:1005A0004FF0013202C88C1A8C4314EAC211F9D000
:1005B000C01A0A0603D0C01E10BDC01A10BD0A041E
:1005C00001D0801E10BD0902FCD0401E10BD421E8D
:1005D00012F8013F002BFBD111F8013B002B02F870
:1005E000013BF9D1704710B5203AC0F00B80B1E85B
:1005F0001850203AA0E81850B1E81850A0E8185058
:10060000BFF4F5AF5FEA027C24BFB1E81850A0E860
:10061000185044BF18C918C0BDE810405FEA827C7A
:1006200024BF51F8043B40F8043B08BF7047D20791
:1006300028BF31F8023B48BF11F8012B28BF20F832
:10064000023B48BF00F8012B70474FF0000200B595
:10065000134694469646203922BFA0E80C50A0E8E5
:100660000C50B1F12001BFF4F7AF090728BFA0E893
:100670000C5048BF0CC05DF804EB890028BF40F85F
:10068000042B08BF704748BF20F8022B11F0804FA1
:1006900018BF00F8012B70474FF0013C50F8042BB5
:1006A00051F8043B9A4221D1A2EB0C03934313EA85
:1006B000CC1317D150F8042B51F8043B9A4215D1B2
:1006C000A2EB0C03934313EACC130BD150F8042B89
:1006D00051F8043B9A4209D1A2EB0C03934313EA6D
:1006E000CC13DBD04FF00000704700BFD01A01BA26
:1006F000B1FA81F101F0180122FA01F0CB40C1F109
:100700002001DBB2C0B2C01A2CFA01F3D11A914316
:1007100011EAC311E6D1704770477047704770B552
:10072000044685690068C10601D5302600E0202610
:10073000C00707D070BDD4E9012130469047206A38
:10074000401C20626D1EF6D570BD70B504468569EB
:100750000078C00707D170BDD4E90121202090475F
:10076000206A401C20626D1EF6D570BD09684A05DE
:1007700001D540B27047C905FCD500B27047096881
:100780004A0501D5C0B27047C905FCD580B2704793
:100790002DE9F0470D4699469246044600F124089B
:1007A0000168880604D5E06921F01001216000E0AD
:1007B0000120A84201DD471B00E00027A1697A194A
:1007C00002EB0900081AA0612078C00602D4204676
:1007D000FFF7A5FF002608E0D4E901211AF806007A
:1007E0009047206A401C761C20624E45F4DB20783E
:1007F000C0060AD52046FFF792FF06E0D4E90121A2
:1008000030209047206A401C2062381EA7F1010763
:10081000F4DC07E0D4E9012118F805009047206ACC
:10082000401C2062281EA5F10105F3DC2046FFF7DD
:100830008CFF2078000602D50220BDE8F087012059
:10084000FBE711680268006A530501D508700AE0E9
:10085000D30501D5088006E0130603D5C217C1E908
:10086000000200E0086001207047000001694A1C96
:1008700002610878704700B58FB0CDE901310021E1
:10088000059105497944CDE9031011466846FFF703
:100890007FFD0FB000BD0000E5FFFFFF0A6802F812
:1008A000010B0A60704710B5436913B1AFF30080C4
:1008B00001E0FFF707FD012010BD127800F12401CF
:1008C0000A7000224A700122EDE711684FF0FF32F2
:1008D000E9E700002DE9FF5F15468A460446DFF888
:1008E000AC80F8440027D8E900103E46CDE900105E
:1008F00010E03AF816106A4602A800F013FD411CF9
:1009000007D02178890603D5E269391891420DD8BC
:100910000744761C2078800602D5E069B84205DDE0
:10092000AE42E6DB3AF816000028E2D1A069C01B0F
:10093000A0612046FFF7F3FED8E90010CDE90010D2
:10094000002017E03AF818106A4602A800F0EAFC06
:10095000B0F1FF3F81460BD000250DF1080B05E0FB
:10096000D4E901211BF8050090476D1C4D45F7D3D4
:1009700008F10100B0428046E4DB206A384420627E
:100980002046FFF7E2FEBDE8FF9F0000465700004B
:100990002DE9F0418046D21D22F007020025D2E960
:1009A0000002F52915A614D0011E72F1000106DA25
:1009B0000023D0EB030063EB020211A608E0D8F895
:1009C00000108B0701D50FA602E0490701D50EA63E
:1009D00001251146002408F1240704E000F0BAF8CC
:1009E00030323A55641C50EA0102F7D12B463246A8
:1009F00021464046BDE8F041FFF7CABE00000000B6
:100A00002D0000002B0000002000000030B4002169
:100A100000F1240408E002F00705D208303542EA6C
:100A20004372DB086554491C52EA0305F3D104689C
:100A3000002310A2250707D5A40600D421B1C4695C
:100A400001230DA2641EC46130BCFFF7A1BE10B526
:100A5000044621461068FFF792FE02462046BDE894
:100A600010400023D2E7D21D22F00701D1E9002374
:100A7000CCE700000000000030000000F0B40D469C
:100A80000188090502D5214C7C4402E01F4C7C44BE
:100A90000E34002100F1240608E002F00F071209CD
:100AA000E75D42EA03721B097754491C52EA0307C7
:100AB000F3D102780023120704D5702D06D009B1B6
:100AC000022311342246F0BCFFF762BE012310342A
:100AD000F8E770B504460D4621461068FFF74FFE53
:100AE000024629462046BDE870400023C6E7D21DD5
:100AF00022F00703D3E90023C0E70368126843F03C
:100B0000200303600823C3610023B7E7A855000052
:100B10002DE9F04115460E46040002D12C6804B9B7
:100B20000BA4204600F02EFC0444207870B1274628
:100B30003146384600F016FC0444207810B10020FD
:100B400004F8010B38462C60BDE8F0810027F9E776
:100B50000000000030B5B0F10A024FEA900E71F1CA
:100B600000034EEA817EB0EB0E0061EB91014FEA8B
:100B7000101E4EEA017E10EB0E0041EB11114FEA00
:100B8000102E4EEA016E10EB0E0041EB11214FEAE0
:100B9000104E4EEA014E10EB0E0041EB1141401891
:100BA00041F100014FEAD00040EA41704FEAD10123
:100BB00010EB80054FEA810444EA907444EB010491
:100BC0006D1944EB0404521BA3414FF0000348BFCE
:100BD0000A3200D530BD401C41F1000130BD7047E4
:100BE0002DE9FF4F0C461E464FF0FF378BB0D2E980
:100BF0000001DDF860800A908A46C1F30A5505B904
:100C00003D46002108464FF00000BAF1000F00F405
:100C1000400005DA00EB80004FF4400101EA50008B
:100C20004FEA9059B9F1010F00DDB9460A9850EA30
:100C30004A000ED044F61050A5F2FF3545432F145C
:100C4000B8F1000F1ED07542291E1EDDC9F1000249
:100C50001CE0B8F1010F4FF0000001D0302103E09B
:100C6000F24305E02154401CB042FBDB3046002239
:100C7000002121540B99C1F80880C1E900200FB070
:100C8000BDE8F08FBD1B6D1CDEE74A4600DA694205
:100C900006A800F0F7FB06AB93E8070003AB83E878
:100CA000070050460A9900F074FC8DE80700A0F593
:100CB00000501F3800900398002D0ADD42F21F01FA
:100CC0004A460844002303A90390684600F0DDFE6D
:100CD00009E0A0F500504A461F38002303A90390FD
:100CE000684600F0E7FE8DE807000004000C03D022
:100CF0004FF0FF30410800E01046B8F1000F03D07C
:100D00000022009215461EE0751E05D4FFF722FF53
:100D1000303262556D1EF9D5B3460122084302D028
:100D200000227F1C04E02078302801D100227F1EA1
:100D3000002A099784D01DE0112D07DAFFF70AFF7A
:100D4000303262556D1C50EA0102F5D1084302D0E1
:100D50000098C8B10EE00021681E05E0235C625CCB
:100D600063542254401E491C8142F7DBAB46A81B4A
:100D7000401E0990002004F80B000B98099AC0F857
:100D80000880C0E9002B7AE711264FF0000857E7EA
:100D90002DE9F04F88460446D21D22F0070191B09C
:100DA000D1E90001CDE90A0103F0D6F902460B981A
:100DB000C00F01D02D2007E02068810701D52B202E
:100DC00002E0202101EAC000032A099001D0072A8D
:100DD00005DB03464146204600F014FB0BE120787A
:100DE000800601D5E06900E00620B8F1650F814674
:100DF00006D0B8F1660F18D0B8F1670F70D131E0A6
:100E00000020B9F1110F009001DB112301E009F17D
:100E100001030AAA01A90CA8FFF7E2FEDDE90C70A4
:100E2000002609F10105834647E001204B4600906A
:100E30004FF000470AAA01A90CA8FFF7D1FEDDE98F
:100E40000DB00C995D46002610B909F101000D188E
:100E5000B9EB050003D4C0F1FF3609F10105A5EB9C
:100E600009002BE0B9F1010F01DA4FF00109002070
:100E7000B9F1110F0090484601DD112300E003464F
:100E80000AAA01A90CA8FFF7ABFEDDE90C704D46DC
:100E900000268346207800070AD4AB4500DA5D4679
:100EA00001A8012D04DD411911F8011C302907D0DA
:100EB0004F4502DA17F1040F04DA012082460FE0F1
:100EC0006D1EEEE7002F02DCED1B3E4403E0781CB4
:100ED000A84200DD7D1CB81B00F1010A4FF000475D
:100EE0002078000703D4AA4501DB4FF0FF3A002128
:100EF000B7F1004F0DF143088DF8431024D00220C4
:100F00002B23002F01DA7F422D230A21021EA0F19C
:100F1000010000DC5FB197FBF1FC97FBF1F201FBF4
:100F20001C7C17460CF1300C08F801CDEEE7A8F157
:100F3000010003702188090501D5452100E06521E4
:100F4000A0F1010800F8011C09980FA9A1EB0807FE
:100F5000FF1D00B10120411901EBEA70A16938447D
:100F6000081A401EA0612078C00602D42046FFF770
:100F7000D6FB099828B1D4E901219047206A401C8A
:100F800020622078C00622D52046FFF7C8FB1EE06D
:100F9000002E04DBB34502DD01A8805D00E03020B7
:100FA000D4E901219047206A401C2062761CAAF1F6
:100FB00001005FEA000A0AD100F020FAC068016867
:100FC000405CD4E901219047206A401C2062281E21
:100FD000A5F10105DCDC07E0D4E9012118F8010BDB
:100FE0009047206A401C2062381EA7F10107F3DCFD
:100FF0002046FFF7AAFB032011B041E62DE9F04F90
:1010000004460D46D21D22F0070089B0D0E90097B2
:101010004846394603F0A0F80246F80F01D02D23C8
:1010200007E02068810701D52B2302E0202101EA97
:10103000C0038DF820300BB1012000E00020032A0E
:10104000824601D0072A04DB2946204600F0DAF95F
:101050003FE12078800601D40D2500E0E569C7F363
:101060000A560D2D49DA00214FEA175B08464FF06A
:101070000000002F00F4400007DA00EB80004FF47E
:10108000400100EBD07001EA60008115012901DD0B
:101090004FF0FF3100224FEA850CBCF1180F06D348
:1010A0001346ACF118004FF08052C24003E04FF4F9
:1010B000801323FA0CF30CF10C0CBCF1200F04D3B9
:1010C000ACF1200C09FA0CF001E007FA0CF0002951
:1010D0004FF0004801DD18B90FE00ED140450CD3A8
:1010E00019EB02095F4121B9404502D19F4329EA2A
:1010F0000209BBEB175F00D0761C2088000502D5E3
:101100007B48784402E07A487844193808AA3023AA
:1011100002F80A30037C0AF10101002E0AF1020AEA
:1011200053546A4602DC4FF0300101E04FF03101C8
:101130004FF001088DF8001002D0A6F2FF3603E050
:1011400059EA470100D06B4E002D02DC21780907D7
:1011500004D54FF002082E218DF80110C44600215D
:101160000BE0C7F303433F01C35C491C6D1E02F84B
:101170000830052908F1010801DA002DF1DC002111
:101180000CE000EB1973491C1B786D1E082902F84E
:1011900008304FEA091908F1010801DA002DF0DCE6
:1011A00021688B0602D516E0A8F10108E04505DDAF
:1011B00002EB080313F8013C302BF5D0B8F1000F17
:1011C00009DD02EB080313F8013C2E2B03D10907BC
:1011D00001D4A8F10108002D05DD3E2102F8081018
:1011E0006D1E08F10108407C002E02F8080008F18D
:1011F000010804DA2D20764202F8080002E02B20D4
:1012000002F808000A214FF47A70864208F10108BA
:101210000BDB96FBF0F3303302F8083096FBF0F36B
:1012200008F1010800FB136601E0642E0CDB64206A
:1012300096FBF0F3303302F8083096FBF0F308F138
:10124000010800FB136601E00A2E06DB96FBF1F0B5
:10125000303002F8080008F1010896FBF1F001FBBC
:101260001060303002F80800A16908F1010808EBAD
:10127000050202EB0A00081AA0612078C00602D419
:101280002046FFF74CFA216A08AE01EB0A00206203
:1012900004E0D4E9012116F8010B9047BAF1010AE4
:1012A000F7D22078C00602D52046FFF738FA6E46FE
:1012B00009E016F8010B3E280FD0D4E90121904730
:1012C000206A401C2062B8F10108F2D22046FFF7E4
:1012D0003CFA09B00320BDE8F08F206A2844206260
:1012E00003E0D4E90121302090476D1EEBD3F8E7ED
:1012F000694F000002FCFFFF10B5436913B1AFF363
:10130000008001E0FFF7E6FA012010BD128800F12D
:10131000240182840022C2840122EDE711684FF08B
:10132000FF32E9E770B516460C46054600F05EF858
:10133000036893F80101012806D0FF2C0FD8185D2F
:1013400068B101202C7070BDD3F8070132462146E8
:1013500003F2071303442846BDE8704018474FF0D6
:10136000FF3070BD30B503461D781DB10A4603E05D
:10137000AC4201D1181A30BD12F8014B002CF7D144
:101380005B1CF1E730B503461D783DB10A4612F803
:10139000014B1CB1AC42FAD15B1CF5E7181A30BD09
:1013A000754600F0EBF8AE4605006946534620F05E
:1013B0000700854618B020B5FEF74AFFBDE820407B
:1013C0004FF000064FF000074FF000084FF0000B01
:1013D00021F00701AC46ACE8C009ACE8C009ACE8B4
:1013E000C009ACE8C0098D467047000010B500F098
:1013F00005F8001D10BD00BFC54A00000048704739
:10140000B81600202DE9F0411F4604460326016866
:10141000072A01F4006004DB08B116A505E016A553
:1014200003E008B115A500E015A521F0100020602B
:10143000A069C01EA0610FB1401EA0612046FFF749
:101440006EF94FB1D4E9012138469047206A401C1B
:101450002062C01C206206E0206AFAE7D4E901217C
:1014600015F8010B9047761EF8D22046FFF76DF96C
:10147000BDE8F0814E414E006E616E00494E46005F
:10148000696E66002DE9F047814616468AB03548F8
:1014900078440DC88DE80D0032487844801C03ACB8
:1014A0000DC884E80D0041F69B300844372190FBBD
:1014B000F1F290FBF1F5A5F1800501FB12041B3C54
:1014C00002D56442012000E00020DFF898A08046A9
:1014D0000027FA44AAF1BE0A0EE0E0070AD032461D
:1014E000684607EB470101230AEB810100F0E2FAAD
:1014F0008DE8070064107F1C002CEED1194F7F444B
:10150000AE3F19E0E80715D007EB04100DF1180AFB
:1015100090E80E008AE80E00C068F04201D19819E8
:1015200008903246012306A903A800F0C3FA03ABD2
:1015300083E807006D10641C002DE3D14FF0010318
:1015400032466946B8F1000F03A802D000F09DFAB8
:1015500001E000F0AFFAC9E90001C9F808200AB0BB
:10156000BDE8F0876C4C000010B50446AFF3008076
:101570002046BDE81040FEF756BE00000048704708
:101580009816002001491820ABBEFEE72600020095
:1015900070475FEA400C08BF91F0000F4FEA8C23C0
:1015A0004FEAC12243EA51514FEA1C5018BF00F5DF
:1015B000F0404FEA300018BF41F000415FEA6C5C38
:1015C00000F02980BCF1FF3F08BF40F08040704729
:1015D000130C06BF12044FF0100C4FF0000C130E4A
:1015E00004BF12020CF1080C130F04BF12010CF11E
:1015F000040C930F04BF92000CF1020CD30F04BF34
:1016000052000CF1010C11464FF00002A0F11F0036
:10161000A0EB0C00704711F0004F08BF704731F08D
:1016200000413FF4D5AF0B0C06BF09044FF0100C7E
:101630004FF0000C0B0E04BF09020CF1080C0B0F4D
:1016400004BF09010CF1040C8B0F04BF89000CF1DD
:10165000020CCB0F04BF49000CF1010CCCF12003AC
:10166000A0EB0C0022FA03F302FA0CF241EA0301A8
:1016700000F10100704720F07F4C80EA030023F066
:101680007F47ACEB070303F57C5300F0004003F108
:10169000FF032DE980494FEA154B09B44FEA144383
:1016A00025EA0B4E24EA03480FF2042606EB132723
:1016B00049083E785FEA320203FB0667C7F5000778
:1016C00007FB06F64FEA54374FEAD64606F1020604
:1016D00007FB066CCCF1005C4FEA1C472CEA074C78
:1016E00007FB06F40CFB06F504EB15464FEA9616CD
:1016F00034BF00204FF000404FEAD13706FB07FC13
:101700004FEA1C4C0CFB0BF7D21B03FB0CF761EBF5
:1017100007010CFB0EF7B0EB074072EB17420CFB16
:1017200008F734BFA2EB0742B2EB074261EB174167
:101730004FEA0C444FEA910706FB07FC4FEA1C4CAA
:101740000CFB0BF7B0EBC74072EB573203FB0CF707
:1017500034BFA2EBC742B2EBC74261EB57310CFB7F
:101760000EF7B0EBC70072EB57720CFB08F734BFF3
:10177000A2EBC702B2EBC70261EB5771039F4FEABE
:10178000816141EA921104EBCC044FEAD1374FEA70
:10179000826206FB07FC42EA90124FEA80604FEA41
:1017A0001C4C0CFB0BF7D21B03FB0CF761EB070186
:1017B0000CFB0EF7B0EB074072EB17420CFB08F77F
:1017C00034BFA2EB0742B2EB074261EB17414FEA8D
:1017D0008C554FEA910704EB9C2406FB07FC4FEA6B
:1017E0001C4C0CFB0BF7B0EBC74072EB573203FB02
:1017F0000CF734BFA2EBC742B2EBC74261EB5731E3
:101800000CFB0EF7B0EBC70072EB57720CFB08F73E
:1018100034BFA2EBC702B2EBC70261EB577115EB05
:101820004C254FEA816141EA92114FEA82624FEA08
:10183000D13742EA901206FB07FC44F100044FEA5C
:1018400080604FEA1C4C0CFB0BF7D21B03FB0CF720
:1018500061EB07010CFB0EF7B0EB074072EB174290
:101860000CFB08F734BFA2EB0742B2EB074261EB77
:10187000174115EB1C154FEA813141EA92414FEABD
:10188000823242EA90424FEA80304FEA0C7644F1CD
:10189000000448EA03434EEA0B484FF0000EB2EB57
:1018A000080C71EB030724BF624639464EEB0E0E5F
:1018B0004FF0000B0018524149414BEB0B0BB2EBC0
:1018C000080C71EB03077BF1000B24BF624639461D
:1018D0004EEB0E0E4FF0000B0018524149414BEBFE
:1018E0000B0BB2EB080C71EB03077BF1000B24BF71
:1018F000624639464EEB0E0E51EA020718BF46F01B
:10190000010616EB0E7655F1000254F1000103D5E5
:10191000BDE88901BDE80088BDE88901BDE800484F
:10192000B619524141EB0101A3F1010370478080D8
:101930007F7E7D7C7B7A7978777676757473727129
:1019400071706F6E6E6D6C6C6B6A6A6968686766E1
:1019500066656464636362616160605F5F5E5E5D73
:101960005D5C5C5B5B5A5A595958585757565655E7
:1019700055555454535352525251515050504F4F49
:101980004F4E4E4D4D4D4C4C4C4B4B4B4A4A4A4999
:1019900049494848484747474746464645454544DC
:1019A0004444444343434342424242414141002B69
:1019B0009C4630D477002BD01CB54FEA370703B4D0
:1019C0004FF010004FF01001BAF1000F06D0BCF13B
:1019D000000FDCBF40F0080040F008014FF00000AD
:1019E0000FBCBDE810400BF1010BBBF1010F08BFAC
:1019F0005FEA170722BF12F1010211F101014FF056
:101A0000004143F1000300F0004043EA000070474A
:101A1000F9D35708D0E746EA064613F1400F4FEADC
:101A200016461FDD13F1200FDFBF16430A460021C3
:101A300020335B42BED0C3F1200746EA064602FAD5
:101A400007F74FEA164646EA0706C3F1200722FACF
:101A500003F201FA07F721FA03F14FF0000342EA1B
:101A60000702A7E746EA020646EA06464FEA164696
:101A700046EA0106BCBF46EA0646360C4FF00003B4
:101A80004FF000024FF0000194E72DE9804C9A4698
:101A9000934670B491E8380007C831EA400C48BF5B
:101AA00034EA430C03D5FFF7E6FDFFF780FFF0BCF7
:101AB000BDE8008C2DE9804C9A46934670B491E8BD
:101AC000380007C810F0804F08BF13F0804F03D1D3
:101AD00000F005F8FFF76BFFF0BCBDE8008C20F0CC
:101AE0007F4780EA030023F07F4C07EB0C03A3F54C
:101AF0007C5300F00040A3F1FE0392F0000F00F0D1
:101B0000B38095F0000F00F077802DE901494FEA8E
:101B100011404FEA144621EA004800FB06FC24EA83
:101B2000064708FB06F607FB08F800FB07F718EB6B
:101B300006484CEB164C4FEA124B18EB07484FEA9D
:101B400015464CEB174022EA0B4E0BFB06FC25EA30
:101B500006470EFB06F607FB0EFE0BFB07F71EEB18
:101B6000064E4CEB164C4FF000061EEB074E4CEBAE
:101B7000174B18EB0B0840F1000018EB0E0B58EB5D
:101B8000000840F100008F1A4FF000013CBFC9432C
:101B9000661B14BFB5EB040C00213CBFC943F61B08
:101BA0004FEA17444EEA8E0E27EA04454FEA1C47D7
:101BB00004FB07622CEA074C05FB07F70CFB05F654
:101BC00004FB0CFC16EB074642EB174216EB0C46E7
:101BD00042EB1C421BEB060658EB0202414146EA6F
:101BE0009E0601D5BDE80189B619524141EB0101BC
:101BF000A3F10103BDE801894FEA14454FEA1147FB
:101C000024EA054621EA074C05FB07F406FB07F723
:101C10000CFB06F105FB0CFC11EB074144EB1744F0
:101C20004FEA124711EB0C4144EB1C4422EA074CEB
:101C300005FB07F206FB07F70CFB06F605FB0CFCA1
:101C400016EB074642EB174216EB0C4642EB1C45DF
:101C50006A1854F1000148BF7047B619524141EB70
:101C60000101A3F10103704795F0000F37D04FEA4F
:101C700011424FEA144721EA024624EA074C02FBCC
:101C800007F106FB07F70CFB06F402FB0CFC14EB58
:101C9000074441EB17414FEA154714EB0C4441EB65
:101CA0001C4125EA074C02FB07F506FB07F70CFB76
:101CB00006F602FB0CFC16EB074645EB174516EB48
:101CC0000C4645EB1C42121951F1000148BF704708
:101CD000B619524141EB0101A3F1010370474FEAEC
:101CE00014454FEA114724EA054621EA074C05FB53
:101CF00007F106FB07F70CFB06F24FF0000605FBA9
:101D00000CFC12EB074241EB174112EB0C4251EB7A
:101D10001C4148BF7047921841EB0101A3F1010338
:101D20007047FEE7704772B6FEE70022AFF300800F
:101D300030B50E4B054601205C7A012C15D8587A37
:101D400000241C54587A03EB800045605D7A03F14F
:101D500008002A54587A421C5A72303008703A20CF
:101D600048702F208870CC70002030BD8C16002069
:101D700010B590F821100022022905D004218163BA
:101D800080F82020012010BD01680B6823F00E03AD
:101D90000B6001680B6823F001030B6090F8403082
:101DA000C46B012101FA03F3636080F8211080F80D
:101DB0002020104610BD000010B590F8211000241E
:101DC000022903D00421816301243DE001680A68EF
:101DD00022F00E020A6001680A6822F001020A601D
:101DE0001A4A0168914201D1012121E0174A1432B7
:101DF000914201D110211BE0144A2832914201D1B5
:101E0000891515E0114A3C32914201D189140FE045
:101E10000E4A5032914202D14FF4803108E00B4A11
:101E20006432914202D14FF4801101E04FF0807191
:101E3000064A083A5160012180F82110002180F8FB
:101E40002010416B01B18847204610BD08000240B8
:101E500042F6DF6303E01946491E89B2FCD2401EF8
:101E6000F9D270472DE9F84FDFF89C91002409F171
:101E7000040A0AF1040B23460F270BF1040EBBE002
:101E80000125A5402A40AA4276D1DFF880C14E68DC
:101E9000A6EB0C0866452BD00DDC032E34D005DCF8
:101EA00036B3012E19D0022E2FD11BE0112E16D0E1
:101EB000122E2AD119E0B8F5881F19D006DCB8F522
:101EC000803F15D0B8F5801F1FD111E0B8F5001F75
:101ED0000ED0B8F5041F18D10AE0CB6815E0CB6826
:101EE0001B1D12E0CB6808330FE0CB680C330CE00D
:101EF0008B682BB1012B4FF0080303D0456104E040
:101F0000042302E0056100E00023FF2A01D8064611
:101F100001E000F104064FEA840501D9A5F120058E
:101F2000D6F8008007FA05FC28EA0C0803FA05F544
:101F300048EA0508C6F800804D68ED005BD5344DD1
:101F4000AE6946F00106AE61AD6924F0030605F006
:101F5000010500952F4D06EB050CDCF80850A6078F
:101F6000360F07FA06F825EA0805DFF8AC80404589
:101F700003D14FF0000810E03DE0DFF8A0804045BD
:101F800002D14FF0010808E0DFF89480404502D10B
:101F90004FF0020801E04FF0030808FA06F848EA9B
:101FA0000508CCF808804D68D9F80060ED034D466F
:101FB00001D5164300E096432E604D68DAF80060C4
:101FC000AD03554601D5164300E096432E604D689B
:101FD000DBF80060ED025D4601D5164300E0964354
:101FE0002E604D68DEF80060AD02754601D51643DF
:101FF00000E096432E60641C0A6832FA04F57FF410
:102000003FAFBDE8F88F0000000401400000111050
:10201000001002400000014000080140000C014097
:10202000001001400AB1016170470904FBE700009C
:10203000014880687047000038000020024881682D
:10204000027811448160704738000020074810B5BD
:10205000016841F010010160032000F075F80F20C5
:1020600000F006F800F024F8002010BD0020024027
:1020700070B50D4D04464FF47A712878B1FBF0F03D
:102080000A490968B1FBF0F000F06FFC48B9102C68
:1020900007D200222146501E00F036F800206C6066
:1020A00070BD012070BD00003800002044000020F9
:1020B0000C4808B5816941F001018161816901F035
:1020C00001010091C16941F08051C161C06900F016
:1020D000805000900448416821F0E06141F00071B7
:1020E000416008BD0010024000000140002809DBEB
:1020F00000F01F02012191404009800000F1E02022
:10210000C0F8001170470000F0B40E4B1B680C467D
:10211000C3F30223C3F10705042D00D90425191DBB
:10212000072901D2002300E0DB1E012606FA05F193
:10213000491E214099409E40761E16403143F0BC16
:1021400002F01EB80CED00E0064900F00702086836
:102150004FF6FF03184040EA0220034A104308608C
:10216000704700000CED00E00000FA052DE9F04793
:102170000F46050061D0434E306800F00700B842BA
:1021800009D2306820F0070038433060306800F032
:102190000700B84251D128683B4C810712D540074F
:1021A00003D5606840F4E06060602878000703D5DC
:1021B000606840F4605060606068A96820F0F000DA
:1021C000084360602878C00728D06868012810D0CC
:1021D0002168022810D0890700292EDA616821F0D1
:1021E000030101436160FFF723FF804641F2883914
:1021F0000DE021688903EFE78901EDE7FFF718FF9C
:10220000A0EB0801494502D90320BDE8F0876068CA
:10221000696800F00C00B0EB810FEFD1306800F07E
:102220000700B8420BD9306820F00700384330600F
:10223000306800F00700B84201D00120E5E72878B7
:10224000400705D56068E96820F4E06008436060F5
:102250002878000706D56068296920F4605040EAB4
:10226000C100606000F038F86168084AC1F30311EA
:10227000515CC8400649086006480068FFF7F8FE50
:102280000020C2E70020024000100240545F000816
:10229000440000203C0000200448054900684968CB
:1022A000044AC1F30221515CC84070474400002039
:1022B00000100240645F000804480549006849684E
:1022C000044AC1F3C221515CC84070474400002059
:1022D00000100240645F000812A185B00FC98DE8AC
:1022E0000F0014A0144A006804905168134801F0CC
:1022F0000C03042B10D0082B0ED1C1F38343C90368
:102300001DF803000AD5516804AAC1F34041515C8D
:102310000A4A5043B0FBF1F005B070470849484302
:10232000FAE7000002030405060708090A0B0C0D72
:102330000E0F1010010200000010024000127A007F
:1023400000093D002DE9F84F040070D02078C04D01
:10235000C00749D06868C0F38100012807D06868C9
:10236000C0F38100022809D16868C00306D5286837
:10237000800339D560680028E7D035E06068B0F5A3
:10238000803F0BD010B1B0F5A02F11D0286820F4F9
:1023900080302860286820F4802002E0286840F41B
:1023A00080302860606890B1FFF742FE06460AE080
:1023B000286840F480202860F0E700BFFFF738FE6F
:1023C000801B642873D828688003F7D50CE0FFF7DA
:1023D0002FFE064605E000BFFFF72AFE801B64289B
:1023E000F0D828688003F7D420789A4E80074FF001
:1023F00001094FF0000839D5686810F00C0F07D0BC
:102400006868C0F38100022809D16868C00306D457
:102410002868800714D52069012808D110E02069B8
:10242000B0B1C6F80090FFF703FE074605E00AE1E9
:10243000FFF7FEFDC01B0228C4D828688007F7D527
:102440002868616920F0F80040EAC10028600DE0CA
:10245000C6F80080FFF7ECFD074604E0FFF7E8FD53
:10246000C01B022823D828688007F7D420780007EB
:102470002CD57948A169D9B1C0F80090FFF7D8FDF3
:10248000074604E0FFF7D4FDC01B02280FD8686A96
:102490008007F7D571484FF4FA510068B0FBF1F0AE
:1024A000009000BF0098411E0091FAD20EE080E03B
:1024B000C0F80080FFF7BCFD074604E0FFF7B8FD59
:1024C000C01B022875D8686A8007F7D420784007B7
:1024D00060D5E8690027C00008D4E86940F0805062
:1024E000E861E869012700F0805000905C480168CD
:1024F000C90513D40168834641F480710160FFF778
:1025000097FD824606E000BFFFF792FDA0EB0A00B0
:1025100064284ED8DBF80000C005F5D5E068012836
:102520000AD008B1052813D0286A20F001002862DB
:10253000286A20F0040002E0286A40F001002862C6
:10254000E06841F2883B98B1FFF772FD82460BE0EC
:10255000286A40F004002862EEE700BFFFF768FD3C
:10256000A0EB0A0159455AD8286A8007F6D50CE035
:10257000FFF75EFD824605E0FFF75AFDA0EB0A017A
:1025800059454CD8286A8007F6D41FB1E86920F075
:102590008050E861E06988B36968C1F3810102296C
:1025A00044D00228C6F8608004D0FFF741FD0446FD
:1025B00038E034E0FFF73CFD074604E0FFF738FD64
:1025C000C01B02282BD828688001F7D4206AB0F5F8
:1025D000803F05D16868A16820F400300843686036
:1025E000D4E908010843696821F47411084368605C
:1025F000C6F86090FFF71CFD044606E025E000BF2A
:10260000FFF716FD001B022809D828688001F7D5BE
:102610001BE000BFFFF70CFD001B022802D90320BE
:10262000BDE8F88F28688001F4D40EE00128F7D0C7
:102630006868226A00F48031914204D1616A00F432
:102640007010884201D00120EAE70020E8E700008E
:102650000010024000004242800442424400002038
:102660000070004070B5040009D0606A002540B1D8
:1026700025616561A56294F8510040B10CE001202C
:1026800070BD6068B0F5827FF4D0E561F2E784F850
:102690005050204600F040F8022084F85100206895
:1026A000016821F040010160A088218900F4827056
:1026B00001F404410843A18901F400610843217C2D
:1026C00001F002010843217D01F001010843218B43
:1026D00001F400710843217F01F03801084394F8A8
:1026E000201001F080010843218D01F400510843BE
:1026F00021680860A069042101EA1040216848604F
:102700002068C16921F40061C1616565012084F818
:102710005100002070BD000030B585B00024009449
:1027200001940294039400681449884223D1144808
:10273000816941F480518161816901F48051049182
:10274000816941F00401816180690E4D00F004004F
:102750000490A0200090022001900320039069467D
:102760002846FFF77FFB4020CDE900046946284654
:102770000294FFF777FB05B030BD00000030014048
:1027800000100240000801402DE9F84F044690F87F
:10279000500000270A9E1D4692468B464FF00109C5
:1027A00001280ED0012084F85000FFF741FC80463C
:1027B00094F85100616801280CD0B1F5827F07D1EF
:1027C00002E00220BDE8F88FA16809B9042801D011
:1027D0000227C2E0BBF1000F27D0BAF1000F24D0CE
:1027E0001DB394F85100042802D0052084F851004C
:1027F00000206065C4F838A0E587A587C4F830B02C
:10280000E586A5862064606420680168490603D4D3
:10281000016841F040010160E068B0F5006F606858
:1028200005D0E8B3012D46D07FE0012795E008B13F
:10283000012D39D1206B21680088C860206B801C75
:102840002063E08E401EE0862EE0206881688907C4
:102850000FD5E18E69B1B9F1010F0AD1216B098859
:10286000C160206B801C2063E08E401EE0864FF02C
:10287000000920688168C9070CD0E18F51B1C06898
:10288000A16B0880A06B801CA063E08F401EE087D6
:102890004FF00109FFF7CCFBA0EB0800B04200E0CD
:1028A00009E001D3701C50D1E08E0028CDD1E08F1B
:1028B0000028CAD13FE0206B216800780873206BA4
:1028C000401C2063E08E401EE0862EE02068816878
:1028D00089070FD5E18E69B1B9F1010F0AD1216BDA
:1028E00009780173206B401C2063E08E401EE08657
:1028F0004FF0000920688168C9070CD0E18F51B101
:10290000C068A16B0870A06B401CA063E08F401EE4
:10291000E0874FF00109FFF78BFBA0EB0800B04206
:1029200002D3701C01D010E07EB1E08E0028CDD122
:10293000E08F0028CAD142463146204601F068F9AE
:1029400028B101272020606507E0032705E0A06883
:1029500018B92068C16880680090012084F851008F
:10296000002084F8500038462CE710B5401EB0F126
:10297000807F01D3012010BD4FF0E02460610F2162
:10298000601701F0FDFB0020A061072020610020FE
:1029900010BD70477047000070B590F83C20012AC8
:1029A00023D0012480F83C40022280F83D200368B7
:1029B0005A689D6822F070060A6832435A600C4BD0
:1029C00002689A4205D0B2F1804F02D0094B9A4278
:1029D00004D1496825F080031943916080F83D4097
:1029E000002180F83C10084670BD022070BD000038
:1029F000002C01400004004010B5040003D094F8FE
:102A00003D0010B107E0012010BD002084F83C001B
:102A1000204600F01FF8022084F83D00211D2068A8
:102A200001F0A8F9012084F8460084F83E0084F8FB
:102A30003F0084F8400084F8410084F8420084F8A4
:102A4000430084F8440084F8450084F83D000020E9
:102A500010BD000008B5154A0168154891420ED115
:102A6000816941F4006181618069002200F40060A5
:102A7000009011461920FFF747FB192010E0B1F133
:102A8000804F11D1C16941F00101C161C0690022CB
:102A900000F00100009001211C20FFF735FB1C20F5
:102AA000BDE80840FFF722BB08BD0000002C014034
:102AB0000010024090F83D10012901D0012070471C
:102AC000022180F83D100168CA6842F00102CA6024
:102AD00000680A49884205D0B0F1804F02D0084909
:102AE000884204D1816801F00701062903D00168FA
:102AF00041F001010160002070470000002C0140FE
:102B0000000400400168CA6822F00102CA6001683E
:102B10000A6A41F211131A4207D10A6A9B101A423B
:102B200003D10A6822F001020A60012180F83D10F9
:102B30000020704770B5044690F83C00012817D07B
:102B4000012584F83C50022084F83D00206882680A
:102B500022F0770222F47F4282600868502830D049
:102B60000DDC20284DD005DC98B310283BD148E07F
:102B7000022070BD302844D0402834D139E060288C
:102B800028D0702806D0B0F5805F2CD0B0F5005F5B
:102B900029D10AE0CB68D1E90121206801F018F9B8
:102BA0002068816841F0770109E0CB68D1E9012113
:102BB000206801F00DF92068816841F4804181604E
:102BC00011E0CA684968206801F014F950212068B2
:102BD00007E016E0CA684968206801F01CF9602126
:102BE000206801F0FFF884F83D50002084F83C0094
:102BF00070BDCA684968206801F0FCF8402120686F
:102C0000EFE7226801461046EBE7704770B50446CF
:102C1000006801694FF00005C943890715D4C168F0
:102C2000C943890711D4E91E01610120207720687A
:102C300080698007204602D0FFF7E7FF04E000F03C
:102C400098F8204600F096F8257720680169C94376
:102C5000490717D4C168C943490713D46FF0040169
:102C60000161022020772068806910F4407F2046AF
:102C700002D0FFF7CAFF04E000F07BF8204600F026
:102C800079F8257720680169C943090716D4C16816
:102C9000C943090712D46FF00801016104202077AD
:102CA0002068C0698007204602D0FFF7AEFF04E02D
:102CB00000F05FF8204600F05DF825772068016994
:102CC000C943C90617D4C168C943C90613D46FF0F4
:102CD00010010161082020772068C06910F4407F4E
:102CE000204602D0FFF791FF04E000F042F82046B2
:102CF00000F040F8257720680169C943C90708D169
:102D0000C168C943C90704D1891E0161204600F08A
:102D100033F820680169C943090609D4C168C94369
:102D2000090605D46FF0800101612046FFF731FEEE
:102D300020680169C943490609D4C168C9434906E5
:102D400005D46FF040010161204600F0C5F920680C
:102D50000169C94389060BD4C168C943890607D4F0
:102D60006FF0200101612046BDE87040FFF712BE00
:102D700070BD7047704700002DE9F041A94CAA4E84
:102D80000027A078ADF5FA6D06F6EC2500287CD179
:102D9000A6A105F1F00002F06DF8294604E07F1CC1
:102DA00007EB470005EBC001A24802F073F907EBFF
:102DB000470005EBC000407A0028F0D19D4801F0A3
:102DC00054FD9AA001F0A6FE9B4802F0B5FC9A487B
:102DD000A061012299A1944801F07CFF0028F8D15C
:102DE000904B95490833F0318F48D6F80C2202F009
:102DF0008BF88D4801F024FD8F4894A1F030FDF749
:102E000091FB1030606101E002F03EFF8A4894A11E
:102E1000F030FDF787FB014660698142F4D18648B6
:102E20008AA1F030FDF77EFB0F30606106E0401CA8
:102E3000A0616069421C626102F0B8FDA06901787E
:102E40000029F4D17C488BA1F030FDF76BFBC01D4D
:102E5000606102E002F018FF606901780029F9D191
:102E600076A002F09CF9122274A16F4801F032FFA3
:102E70000028F8D17048F030FDF78AFB694B6E49A5
:102E80000C330246F031684800E006E002F0DCF95D
:102E9000654801F0D5FC0120E070A07801281BD125
:102EA000122276A1604801F015FF5F48D6F80C1297
:102EB00001F0EEFC7548FDF76BFB5A4B02460C33F4
:102EC0007249594802F0C0F9574801F0B9FC70A0A6
:102ED00002F0DBFD0220E070A0784FF0000802282D
:102EE0001FD1554852A1C830FDF7D6FB10B10127BC
:102EF00000260DE050486BA1C830FDF725FB0027E8
:102F0000F6E74D480931C830FDF7C6FB88B1761C9D
:102F100006EB460005EBC001487A0028F1D10320FA
:102F2000E070A078032868D0042868D0052876D0FF
:102F300067E064225E490DF26C70FDF754FB06EB0E
:102F4000460055F8302045468DF8E8832FB13A49C0
:102F5000FAA8C83102F056FE03E05649FAA8FDF778
:102F60009BF9FAA8FDF714FB014653A002F08DFD72
:102F70006420FEF76DFFFAA954A002F086FD2E49E9
:102F80008DF80050C8310DF26C70FDF720FB014642
:102F90000122254801F09EFE224B4FF47A76083339
:102FA00032466946204801F0AFFF43A0A16802F015
:102FB0006CFD6420FEF74CFF642332460FE0194B92
:102FC00069460833184801F09FFF3BA0A16802F052
:102FD0005CFD6420FEF73CFF2089642382B26946D1
:102FE0003B4800F0CBFAA06832469042E7D08DF81B
:102FF00000500D4801F024FC91E7042000E005207A
:10300000E070E078A070062804D184F8028031488E
:10301000FFF778FD0DF5FA6DBDE8F081FFE70620BA
:10302000EEE70000000000204C07002046494C4518
:1030300000000000281300207809002046494C4574
:103040002F68656C6C6F2E68746D00003C212D2D0F
:103050006D794846536469722E2D2D3E00000000A4
:103060003C212D2D2F6D794846536469722E2D2DEC
:103070003E0000003C2F68746D6C3E0046494C4594
:103080002F6C6F672E747874000000006C000020B5
:10309000485454502F312E3120323030204F4B0DB8
:1030A0000A00000048454C4C4F2E48544D0000008B
:1030B000F05E00081861000841542B434950534505
:1030C0004E443D302C25640D0A000000257300009D
:1030D00030160020A0150020704770477047000090
:1030E000F8B5026804461068D168536910F00F0FF4
:1030F0004FF0000553D003F0010601F490773743F9
:103100005FD0C20705D0CA0503D5226C42F0010288
:103110002264420705D5DA0703D0226C42F002028E
:103120002264820705D5DA0703D0226C42F004023C
:103130002264020707D501F02002324303D0226C3B
:1031400042F008022264226C002A34D0800604D5A2
:10315000880602D5204600F090FE20684069216C68
:10316000C0F38010090700D430B3204600F06DFE94
:103170002068416949061BD5416921F04001416140
:10318000A06BA8B158494163A06BFEF715FE00285B
:1031900011D0A06B416B01B0BDE8F0400847830639
:1031A0000FD58B060DD52046BDE8F84000F065BE72
:1031B0002046FFF793FFF8BD2046FFF78FFF2564F9
:1031C000F8BD266B2023012E52D1C60650D5CE065F
:1031D0004ED5106850680090506940062AD5A16B02
:1031E000086840680004000CEAD0A68D8642E7D942
:1031F000E0858869202818D0D06820F48070D060DD
:103200002068416921F0010141612068416921F094
:103210004001416184F83E3025632068C16821F097
:103220001001C160A06BFEF7A3FDA08DE18D401AD7
:1032300081B219E0A08DE18D401A81B2E08D0028A5
:10324000BED00029BCD0D06820F49070D060206837
:10325000426922F00102426184F83E302563206811
:10326000C26822F01002C2602046FFF736FFF8BDA8
:1032700005062BD50D0629D594F83D002128F6D159
:10328000A068B0F5805F01D12069B0B1206A411C0F
:103290002162216800784860E08C401E0004000C28
:1032A000E084E4D12068C16821F08001C160206819
:1032B000C16841F04001C160F8BD206A0088C0F3D8
:1032C00008005060206A801C2062E5E74006F3D5C4
:1032D0004806F1D5D168204621F04001D16084F83C
:1032E0003D3000F0A4F9F8BD3B3E000870B5040085
:1032F00004D094F83D00002510B106E0012070BD17
:1033000084F83C50204600F023F8242084F83D0047
:103310002068C16821F40051C160204600F008FE19
:103320002068016921F4904101612068416921F020
:103330002A0141612068C16841F40051C1602564DF
:10334000202084F83D0084F83E00002070BD00007D
:1033500030B585B000240094019402940394006871
:10336000184988422BD11848C16941F40031C16124
:10337000C16901F400310491816941F00401816166
:103380008069124D00F00400049004200090022097
:1033900001900320039069462846FEF763FD08204C
:1033A000CDE90004694628460294FEF75BFD002241
:1033B00002212620FEF7A8FE2620FEF797FE05B084
:1033C00030BD0000004400400010024000080140F1
:1033D00090F83E30202B0ED159B152B190F83C30CC
:1033E000012B08D0012380F83C300023036300F058
:1033F000FBBD0120704702207047000070B50068D7
:103400003549884266D1354C354EA088217806F57D
:1034100016723154401CA080E0881154401CE0809A
:1034200030A11046FDF77EF838A1FDF77BF80025A6
:10343000A0B112223CA1404801F04CFC0028F8D178
:103440003E48FDF7A5F8254B02460C333B493A4868
:1034500001F0FAFE384801F0F3F9E580A088304425
:1034600010F8011C0A292ED110F8021C0D292AD1AE
:1034700010F8031C0A2926D110F8040C0D2822D1BB
:103480002FA11748FDF74EF848B12FA11448FDF7BA
:1034900049F80D3030A12061FDF73EF820612FA1E1
:1034A0000F48FDF73FF868B12D482EA200F15403F4
:1034B00080F854502DA10A4802F0C2FBA5702D4897
:1034C000FFF7F8FAA580BDE87040012203492A48B9
:1034D000FFF77EBF70BD00000044004000000020E8
:1034E0006C000020436F6E74656E742D54797065A6
:1034F0003A206170706C69636174696F6E2F6F63DD
:103500007465742D73747265616D00002D2D2D2D01
:103510002D2D5765624B6974466F726D426F756EE3
:10352000646172790000000046494C452F746D704B
:103530002E747874000000004C070020C4020020A4
:10354000504F535400000000626F756E64617279D1
:103550003D2D2D2D2D0000000D0A00004745540083
:10356000EC09002020485454502F000047455420B7
:103570002F000000A0150020301600202DE9F84390
:10358000044690F83D001F4616460D4620284CD1B3
:10359000C5B1BEB194F83C00012846D0012084F8A2
:1035A0003C004FF00008C4F84080212084F83D0022
:1035B000FEF73EFDA6848146E684A068B0F5805FF4
:1035C00003D004E00120BDE8F883206928B12E462D
:1035D0005FF0000584F83C800EE00026FAE78021C9
:1035E000204600F01CFDA0B9AEB116F8010B216811
:1035F0004860E08C401EE084E08C4B464FF00002B7
:1036000000970028EBD14FF04001204600F007FD65
:1036100030B10320D7E735F8020BC0F30800E6E726
:10362000202084F83D000020CDE70220CBE7704742
:10363000FEE7000010B504490448FEF776FB024996
:10364000491E087010BD0000310000201C00002041
:1036500030B585B000241848009401940294039476
:10366000816941F010018161816901F010010491CB
:10367000816941F020018161816901F0200104919B
:10368000816941F00401816180690C4D00F0040002
:103690000490002210212846FEF7C4FC1020009060
:1036A0000120CDE901040220039069462846FEF777
:1036B000D9FB05B030BD00000010024000080140F9
:1036C000104810B50E4901604FF48271416000212D
:1036D0008160C1604FF400720161C0E905123822B7
:1036E000C0E90721416281620A21C162FEF7BAFF87
:1036F000002803D0BDE81040FEF715BB10BD000048
:10370000003001404815002010B586B0002418484C
:103710000094019402940394049414490594016064
:1037200041F61F41C0E9011441F28831C0E9031498
:1037300044618461FFF760F908B1FEF7F4FA4FF4D1
:103740008050009069460A48FFF7F4F908B1FEF787
:10375000EAFA049404A906480594FFF71DF9002825
:1037600001D0FEF7E0FA06B010BD0000002C0140C9
:10377000A015002010B586B00024164800940194CE
:103780000294039404944FF080410594016041F643
:103790001F41C0E901140A21C0E903148461FFF745
:1037A0002BF908B1FEF7BFFA4FF48050009069463C
:1037B0000848FFF7BFF908B1FEF7B5FA049404A969
:1037C00004480594FFF7E8F8002801D0FEF7ABFAAB
:1037D00006B010BDE81500200C4810B50A4901607C
:1037E0004FF4E1314160002181600C22C160C0E9E9
:1037F00004128161C161FFF779FD002803D0BDE8A3
:103800001040FEF790BA10BD004400403016002072
:10381000FEE7FEE770470000044B20B100221021B4
:103820001846FEF7FFBB0122F9E70000000801403F
:1038300010B501220021092000F0B2F9C4B2002025
:10384000FFF7EAFF0CB1012010BD002010BD1FB52D
:103850006846FFF7EDFF10B1002004B010BD9DF8E1
:1038600000100120B0EB911F09D19DF808209DF8B0
:10387000091000EB0220084400048009EDE79DF8E0
:1038800005009DF80A1000F00F0000EBD1109DF824
:1038900009109DF8072001F0030100EB41019DF89C
:1038A0000800800900EB82009DF8062002F0030268
:1038B00000EB8220401CC91F8840CEE72DE9F04173
:1038C0000646194815464078062800D049024FF4AC
:1038D0000077012D4FF001021AD0122000F060F99C
:1038E0003946304600F022F86D1E044606F5007693
:1038F00015F0FF0501D0002CF2D0012200210C2090
:1039000000F04EF90020FFF787FF2046BDE8F08168
:10391000112000F045F910F0FF04F3D1394630468C
:1039200000F004F80446EDE76400002070B5054699
:103930000C460120FFF770FFFF2002F069F90646F0
:103940006420FEF785FAFE2EF6D103E002F060F95E
:1039500005F8010B641EA4B24FF0FF00F6D202F08E
:1039600057F9FF2002F054F9002070BD70B50C46E5
:103970000546FF2002F04CF9FF28FAD1204602F05C
:1039800047F9FD2C18D000244FF40076285D02F092
:103990003FF9641CA4B2B442F8D3FF2002F038F916
:1039A000FF2002F035F9FF2002F032F900F01F008D
:1039B000052801D0022070BD002070BD70B50646FC
:1039C0001F4815460C464078062800D04C02012DB1
:1039D00014D0012809D001220021372000F0E0F89E
:1039E00001222946172000F0DBF801222146192088
:1039F00000F0D6F810F0FF040BD01BE001222146A6
:103A0000182000F0CDF810F0FF0413D1FE2130464D
:103A10000DE0FC213046FFF7A9FF6D1E06F500768C
:103A200015F0FF0501D00028F3D0FD210020FFF79D
:103A30009DFF04460020FFF7EFFE204670BD00000A
:103A4000640000202DE9FC410027DFF84C8100973D
:103A500038200197C8F81C003846FFF7DDFE4F4DAF
:103A60000024287802F0D4F8641CA4B20A2CF8D3FD
:103A700000219522084600F093F8C0B20128F7D142
:103A80006F7087224FF4D571082000F089F8C0B21A
:103A9000012873D100246E46287802F0B9F8305519
:103AA000641CE4B2042CF7D39DF802004FF6FE74B8
:103AB000012803D19DF80300AA281FD0012200216C
:103AC000372000F06DF801220021292000F068F86D
:103AD000C0B201283DD802206870012200213720A1
:103AE00000F05EF801220021292000F059F810F0C2
:103AF000FF0F3BD0641EA4B2EFD237E04FF08047F7
:103B000001220021372000F04BF8012239462920FC
:103B100000F046F810F0FF0F02D0641EA4B2EFD2FE
:103B2000B4B1012200213A2000F03AF880B9002413
:103B3000FF2002F06DF83055641CE4B2042CF7D37A
:103B40009DF80000400601D5062000E004206870C2
:103B500014E00120687001220021104600F020F8D6
:103B600010F0FF0F02D0641EA4B2F4D22CB10122D7
:103B70005102102000F014F800B16F700020FFF720
:103B80004BFE0020C8F81C00687810B10020BDE88A
:103B9000FC810120FBE700004815002064000020A4
:103BA0002DE9F041054617460C460020FFF734FE8C
:103BB0001420FEF74DF90120FFF72EFE134E30784A
:103BC00002F026F8FF28FAD145F0400002F020F874
:103BD000200E02F01DF8C4F3074002F019F8C4F3F8
:103BE000072002F015F8E0B202F012F8384602F0B1
:103BF0000FF80C2D02D1307802F00AF8FF2002F005
:103C000007F80106FAD4BDE8F08100006400002046
:103C100038B50B46009204460022802100F008F8D7
:103C2000002804D0606D40F020006065032038BD9E
:103C30002DE9F8431E46914688460446089DFEF746
:103C4000F7F9401B351AFEF7F3F9074625480068D7
:103C5000C0F3CB30684338E0701C37D0FEF7E8F98A
:103C6000C01BA84203D215B1009860B32CE02068B5
:103C7000416821F0E00141606068B0F5827F0BD1BE
:103C8000A068B0F5004F02D0B0F5806F04D1206875
:103C9000016821F040010160A06AB0F5005F09D120
:103CA0002068016821F4005101602068016841F436
:103CB00000510160012084F85100002084F8500078
:103CC0000320BDE8F8830025401E0090206881682D
:103CD00038EA010004D000214945BDD10020F0E7B9
:103CE0000121F9E7440000200149C8617047000044
:103CF000481500207047FEF7A1B930B58FB02821D4
:103D00006846FCF7A2FC14210AA8FCF79EFC0121DE
:103D10000804CDE900100024029402250491CDE9A5
:103D200007504FF4E01009906846FEF70BFB08B10E
:103D300072B6FEE70F20CDE90A054FF48060CDE9A9
:103D40000C4002210AA80E94FEF710FA002801D0B8
:103D500072B6FEE70FB030BD704700000148FEF7B5
:103D600055BF0000A01500200148FEF74FBF00001E
:103D7000E815002070B50268134B144C4FF08046D4
:103D8000984203D0B04201D0A04203D122F0700586
:103D90004A682A43984203D0B04201D0A04203D1DE
:103DA00022F44074CA6822434C6922F08002224304
:103DB00002608A68C2620A688262984201D1096917
:103DC00001630121416170BD002C014000040040ED
:103DD00010B5846842EA032224F47F440A43224354
:103DE000826010BD826822F070020A4342F007012F
:103DF0008160704710B5036A046A24F0010404620C
:103E0000846924F0F00444EA021423F00A020A430D
:103E10008461026210BD10B5036A23F010030362CF
:103E20008369046A23F4704343EA023224F0A00356
:103E300043EA01118261016210BD10B5406A0021A0
:103E4000C185C184FFF74AF910BD0168CA6822F430
:103E50009072CA6001684A6922F001024A61016BEE
:103E6000012904D10168CA6822F01002CA60202129
:103E700080F83E1000210163704708B590F83E10AD
:103E8000222901D0022008BD82684FF480539A4253
:103E900001D1016921B1816A9A421BD04AB10AE07D
:103EA0000268816A5268C2F308020A80816A891C2A
:103EB00008E0026972B10268526802F07F020A707B
:103EC000816A491C8162C18D491E0904090CC185A2
:103ED00003D019E002685268F1E70168CA6822F06D
:103EE0002002CA600168CA6822F48072CA60016850
:103EF0004A6922F001024A61202180F83E10016BDC
:103F0000012903D0FFF77AFA002008BD00210163E0
:103F10000168CA6822F01002CA6001680A68D20605
:103F200002D50A6849680091818DFFF7D6F8EBE762
:103F300070B5044600680169E26821F440511143FC
:103F400001612169A0680843616908432168CA6862
:103F500041F20C639A430243CA6020684169A26936
:103F600021F44071114341611E492068884202D109
:103F7000FEF7A2F901E0FEF78FF900EBC00101EBBB
:103F80000012606864218000B2FBF0F3B3FBF1F330
:103F90006FF018067343B2FBF0F5B2FBF0F605EBD9
:103FA0008305322303EB0515B5FBF1F5B6FBF1F6FE
:103FB00005F0F00505EB0615B2FBF0F6B2FBF0F0EC
:103FC000B0FBF1F06FF01802504306EB800003EBFA
:103FD0000010B0FBF1F0216800F00F002844886069
:103FE00070BD00000038014081628285C2850021D9
:103FF0000164222280F83E2080F83C100168CA68E3
:1040000042F48072CA6001684A6942F001024A6162
:104010000068C16841F02001C160002070472DE9AF
:10402000F041984617460E460446069D1DE0681C62
:104030001BD02DB1FDF7FCFFA0EB0800A84214D95E
:104040002068C16821F4D071C1602068416921F005
:1040500001014161202084F83D0084F83E000020E9
:1040600084F83C000320BDE8F0812068006836EA4F
:10407000000004D00020B842D9D00020F3E701208E
:10408000F9E700000148FFF72BB8000030160020C8
:1040900010B5FFF7D7FC002809D03820FFF724FE21
:1040A000FF2001F0B5FD0020FFF71EFE012010BD2E
:1040B00010B5144641B101291DD0022914D003299D
:1040C00015D00424204610BD0120FFF7A5FB1420C5
:1040D000FDF7BEFEFF2001F09BFDFF28F7D1002475
:1040E0002046FFF799FBEDE74FF4007000E0082051
:1040F00010800024E6E7FFF7AAFB2060F9E770B51F
:1041000014460D460BB148B901E0042070BDDAB287
:1041100021462846FFF7D2FB0028F7D0012070BDCA
:10412000002804D0012803D0022801D001207047C4
:104130000020704770B514460D460BB148B901E038
:10414000042070BDDAB221462846FFF737FC00286C
:10415000F7D0012070BDFEE7490050EAC12018BF2A
:1041600004204A0D18BF40F0010040F2FF72B2EB8C
:10417000515F08BF40F00200012808BF05207047CA
:104180000907090E002804DB00F1E02080F8001484
:10419000704700F00F0000F1E02080F8141D704718
:1041A00030380A2801D201207047002070470000F3
:1041B00010B50446002084F80402401EC4F82C0206
:1041C000204601F047FC08B1032010BDB4F8FE0101
:1041D000A0F52A41553901D0022010BD94F83600CF
:1041E000B4F8371040EA01210848B0EB012F08D09D
:1041F00094F85210B4F8532041EA0221B0EB012F99
:1042000001D1002010BD012010BD00000046415426
:10421000F0B50022184B144602EB420653F8265024
:1042200085B1D0F80072BD420DD103EB8605D0F800
:1042300008626F68B74206D12D89B0F80662B542B0
:1042400004D000E00124521C022AE5D3022A01D046
:1042500079B904E05CB9022909D01220F0BD02EB63
:10426000420003EB80004089B0F5807F01D0002040
:10427000F0BD1020F0BD00007416002030B5002104
:10428000064A0C4601EB410352F82350854201D106
:1042900042F82340491C0229F4D330BD7416002093
:1042A000D0F82422D0F80002490A90F80202B1FBAB
:1042B000F0F0121D02CA19B1884203D3401AF8E780
:1042C00000207047116808447047D0F81422891EF6
:1042D000921E8A4201D800207047D0F8282290F818
:1042E000020201FB002070472DE9F0410F00054656
:1042F00006D001F061FA02280BD20120BDE8F0815E
:10430000D5F80C621EB1D5F81402B04208D80126C7
:1043100006E0411CF2D0D5F814128142EED83E4698
:104320003446D5F81402641CA04202D80224022E9E
:104330000AD32146284601F03FFA38B1411CDDD0AE
:104340000128DBD0B442ECD10020D7E76FF07042F7
:104350002146284601F0A2FB30B957B12246394622
:10436000284601F09BFB20B1012812D001242046F1
:10437000C4E7C5F80C42D5F81002411CF7D0401E26
:10438000C5F8100295F8050240F0010085F8050215
:10439000EDE74FF0FF34EAE72DE9F04789460C6876
:1043A00000E0641C21782F29FBD05C29F9D0D0F8DB
:1043B00018520B222021284601F045FB002001461F
:1043C0000B460826E25C5B1C202A35D92F2A33D005
:1043D0005C2A31D02E2A01D0B04208D3082E38D121
:1043E0002E2A36D108200B268906090EEAE7802AF4
:1043F00005D3244F41F003013A4412F8802C22A740
:1044000000E07F1C97F800C0BCF1000F02D094457B
:10441000F7D11EE0A2F14107192F02D841F00201A5
:1044200007E0A2F16107192F03D8203A41F00101FA
:10443000D2B22A54401CC5E71C44C9F80040202AC7
:1044400001D8042200E0002218B12878E52803D022
:1044500004E00620BDE8F08705202870082E01D171
:104460008806010E01F00300012801D142F010027C
:10447000C1F38100012801D142F00802EA72002054
:10448000E8E700006C5F0008222A2B2C3A3B3C3DF9
:104490003E3F5B5D7C7F0000401E022815D20C4B26
:1044A00000EB400203EB82014889B0F5807F05D024
:1044B00008B1401E80B2488110B104E00020FAE744
:1044C000002043F8220000207047022070470000BF
:1044D000741600202DE9F041B0F806620446761CFF
:1044E00030040F46000C37D0D4F8100298B33107CF
:1044F00073D1401CC4F81002D4F80C12D4F8000296
:1045000031B190F80222521E12EA161F05D064E063
:10451000B0F80802B0421FD95FE001F04DF905463E
:1045200001281ED9681C3AD0D4F80002D0F8141221
:10453000A94249D87FB1D4F80C12FFF7D5FE050087
:104540000DD0012D0DD0681C29D0D4F8000201F047
:10455000FFFB20BB07E0FFE70420BDE8F081072058
:10456000FBE70220F9E74FF400720021D4F80002C3
:1045700001F069FA2946D4F80002FFF7A6FED4F844
:10458000001200274FF00108C1F82C0211E000BF13
:1045900080F80482D4F8000201F0DAFB08B10120AF
:1045A000DBE7D4F80002D0F82C12491C7F1CC0F8BD
:1045B0002C12D4F8000290F80212B942E8D8D0F8D0
:1045C0002C12C91BC0F82C12C4F80C522946D4F87E
:1045D0000002FFF77AFEC4F81002A4F80662D4F8CD
:1045E000000206F00F0100EB4110C4F81402002095
:1045F000B3E7000070B504460D46042023E000BF79
:10460000D4F8000201F026FA18BBD4F814120A7884
:10461000AAB1C97AE52A01F03F010AD02E2A08D0B2
:104620000F2906D021F0200108290AD00021A94233
:1046300012D000212046FFF74DFF20B109E00420F1
:1046400007E00121F3E7D4F810120029D8D100289F
:1046500002D00021C4F8101270BD70B504460021CC
:1046600000F057F810E0D4F81012D4F8000201F06E
:10467000F1F958B9D4F814020078E52809D040B10E
:1046800001212046FFF726FF0028ECD0042809D09E
:1046900009E0D4F81012D4F8000201F0DBF90500AB
:1046A00003D013E00720054610E0D4F814022022BE
:1046B000002104F5007401F0C6F9D4E905010B22CC
:1046C00001F0B8F92168012081F80402284670BD84
:1046D00070B50446B0F8061200F01BF8050016D1BC
:1046E000D4F81012D4F8000201F0B4F905000ED18C
:1046F000D4F814022022002104F5007401F0A3F97B
:104700006169E52008702168012081F804022846CB
:1047100070BD70B5A0F80612D0F808320D460446F8
:10472000012B40D0D4F80002D0F8141299423AD9A3
:1047300033B990F80012032906D1D0F824321BB106
:1047400090F80202060114E0B0F80812A9422AD932
:10475000D0F8240214E001F02FF80346401C20D0CA
:10476000022B20D3D4F80002D0F8140298421AD9B0
:10477000AD1BD4F80002B5421946ECD2FFF7A5FDF7
:10478000C4F80C3278B100EB1510C4F81002D4F85C
:10479000000205F00F0100EB4110C4F814020020E4
:1047A00070BD012070BD022070BD0000084910B529
:1047B0000B5C002253B901220A540A1801EB800055
:1047C000127A40680168104688470246104610BDBC
:1047D0008C16002030B4054C231804EB80001B7AA3
:1047E000406804691846A44630BC60478C16002017
:1047F00030B4054D2C1805EB8000247A406885689C
:104800002046AC4630BC60478C160020044A111884
:1048100002EB8000097A40684268084610470000B1
:104820008C16002030B4054D2C1805EB8000247A3E
:104830004068C5682046AC4630BC60478C160020F6
:1048400010B5044600F04FFC00280DD1204601F0C1
:10485000AFFA002808D1D4F82802FFF71DFE00287F
:1048600002D10021C4F8001210BD10B5044601F0B9
:104870009FFA00280AD1D4F81C1221B10846FFF78C
:104880000BFE002802D10021C4F8001210BD000068
:104890002DE9FC5F0D46044601F08AFA5FEA000943
:1048A00073D194F8070200286FD1D4F824020127AD
:1048B0004FF0020A002869D0691C33D0D4F80C02EA
:1048C000A84200D20546C4F80852002D5CD020460C
:1048D000691EFFF7E5FC0146C4F81402D4F8000293
:1048E000FFF7F3FC00287CD0D4F800126D1E91F87D
:1048F0000222521E02EA55221518B4F80802C00519
:10490000E4D0D4F81822AA42E0D094F80602400677
:1049100046D591F8010201232146FFF783FF0028C5
:1049200074D137E002C80091D4F8101283460225F2
:1049300009B30026AD1C01918846761CD4F800020C
:1049400000F03AFF014601284BD9481C5ED008F11F
:1049500001008142F0D00098854206D8CBF8006073
:104960000BF10400019A04C08346D4F80002D0F889
:1049700014028842DDD8D4F82402056000988542EC
:1049800005D80021CBF80010C2E09DE016E04FF002
:104990001109BDE094F8060220F0400084F80602F8
:1049A000D4F8000201232A4690F801022146FFF7BD
:1049B0001FFF00282AD1C4F81852A9E0D4F80C022D
:1049C000A84204D294F80612890700D405464FF095
:1049D0000008D4F80802C4F808824DB3D4F80022C5
:1049E00000E06EE092F802124E0280B1691E401E95
:1049F000B1FBF6F1B0FBF6F3994208D3711E884380
:104A0000C4F808022D1AD4F8141210E06EE0D4F89D
:104A1000101251B900211046FFF766FC014601282B
:104A20004FD0481C62D0C4F81012C4F8141211BB45
:104A300031E000BF94F806028007D4F8000205D5E3
:104A4000FFF752FC010004D1354616E000F0B4FE39
:104A50000146481C4AD0012933D9D4F80002D0F8C5
:104A6000140288422DD9C4F81412D4F80802AD1BE0
:104A70003044C4F80802B542DCD8D4F8080228440F
:104A8000C4F80802E80506D0D4F80002FFF71DFCC0
:104A9000B8B100EB5528B4F80802C0052CD0D4F802
:104AA0001822424528D094F80602400614D5D4F8BE
:104AB00000020123214690F80102FFF7B3FEA8B9D6
:104AC00004E084F807A20220BDE8FC9F94F80602E7
:104AD00020F0400084F80602D4F800020123424688
:104AE00090F801022146FFF783FE18B184F807729F
:104AF0000120E9E7C4F81882D4E98201884207D985
:104B0000C4F80C0294F8060240F0200084F8060273
:104B10004846D9E72DE9F14FADF50C7D00F0ADFE2B
:104B2000074601228CA980A800F07AFC040009D174
:104B300089A8869068468C9900F09EFD040002D0FA
:104B4000042C02D093E0082491E000218098FFF724
:104B5000CBFB060009D0012E09D0701C09D080982B
:104B600001F0F6F8040006D066E0072464E00224B1
:104B700062E0012460E031468098FFF7A6FB809D4B
:104B800080464FF400720021284600F05CFF0B22A3
:104B90002021284600F057FF2E242C701020E872A8
:104BA000F8B28890A875C7F3072B85F817B0C7F33C
:104BB000074A85F818A04FEA176985F81990314619
:104BC000284601F035F805F1200020222946074645
:104BD00000F030FF85F821408098829990F800021B
:104BE000032805D18098D0F82402884200D1002102
:104BF000384601F01DF8809890F8027215E080990F
:104C00000120C1F82C82809908F1010881F8040282
:104C1000809801F09DF804000ED14FF4007200213D
:104C2000284600F010FF7F1EFFB2002FE7D1684634
:104C3000FFF713FD040004D03146809800F0AAFF6E
:104C400015E085981021C1728899817580F817B098
:104C500080F818A080F81990314600F0E9FF80999B
:104C6000012081F80402809801F017F804460DF540
:104C70000D7D2046BDE8F08F2DE9F74181B09046CB
:104C800002980090684600F022FE040003D50B2035
:104C900004B0BDE8F0810E4E002756F8245025B12F
:104CA0002846FFF7EBFA85F800720198002801D03A
:104CB00080F8007246F8240002D0B8F1010F01D04C
:104CC0000020E5E7002202A901A800F0A9FBDFE728
:104CD0004C0000202DE9F747ADF50B7D06000ED006
:104CE0004FF0000802F01F0727F001028CA980A8EE
:104CF000C6F8008200F094FB040005D0B4E009205F
:104D00000DF50E7DBDE8F08788A8869068468C99E1
:104D100000F0B2FC859D04000BD11DB1780803D0D2
:104D2000012102E0062404E000216846FFF770FA42
:104D3000044617F01C0F5FD04FF0010AD4B1042CC9
:104D400013D100204A4902E0401C022805D200EBA2
:104D5000400251F82220002AF6D1022804D06846E9
:104D6000FFF77BFC044600E01224859D47F008070E
:104D700054B179E0E87A10F0110F01D0072473E004
:104D8000780701D508246FE0380743D500F075FD9A
:104D9000A873010AE973010C2974000E687485F880
:104DA0000B8085F81C8085F81D8085F81E8085F8AD
:104DB0001F802946809800F009FE81460021284680
:104DC00000F036FF8099B9F1000F81F804A21FD0DE
:104DD00080984946D0F82CA200F0DCFE040043D1B4
:104DE0008099A9F10100C1F80C025146809800F0A9
:104DF00031FE04000AD037E0B4BBE87AC10601D521
:104E0000042431E0B90701D5C007B7D1380701D56F
:104E100047F020078098D0F82C02C6E9870578086B
:104E200001D0012100E00021684600F06FFDC6F8C6
:104E30002802D8B186F8067286F8078247462946C6
:104E400006F50076809800F0C1FD3061287FD5F826
:104E50001D1040EA0120C6E90270B76177628098B0
:104E60003060B0F80602B080204649E70224FBE734
:104E70007416002073B584B0050009D0002205A97E
:104E8000684600F0CDFA04004FF0000603D037E08A
:104E9000092006B070BD0098C5F8000201A8C5F849
:104EA00018022846059900F0E7FB040015D1D5F853
:104EB000141239B1C87AC00621D5009800F086FDD9
:104EC000C5F8080200980021B0F80602A5F804020F
:104ED0002846FFF71EFC040002D0042C0FD00FE080
:104EE000D5F8080240B10021284600F00FFDC5F8B2
:104EF0001C0238B9122403E0C5F81C6202E0052444
:104F0000C5F800622046C4E72DE9F84F8846002125
:104F1000994615460446196000F04AFF002812D150
:104F200094F8070200280ED194F80602C00709D0B1
:104F3000D4E98201081A01274FF0020A854200D9FC
:104F40000546A2E00720BDE8F88F00BFD4F808129C
:104F5000C8057CD1D4F8000290F80222521E02EA61
:104F6000512212F0FF0614D131B1D4F8242232B10B
:104F70002046FFF795F906E0D4F8100203E0D4F8D4
:104F8000141200F019FC022823D3411C5BD0C4F892
:104F90001402D4F81412D4F80002FFF796F9C0B145
:104FA00030440090680A5FEA000B2AD0D4F800125F
:104FB00006EB0B0291F80202824201D9A0EB060B2C
:104FC00091F801025B464146009AFFF711FCD0BB05
:104FD00003E084F807A20220B5E794F80602400631
:104FE0000CD5D4F818120098081A584506D208EBC8
:104FF00040204FF40072214600F01CFD4FEA4B2682
:1050000037E0D4F818220098824221D094F80602A2
:1050100040060ED5D4F800020123214690F8010283
:10502000FFF700FC78B994F8060220F0400084F8FD
:105030000602D4F800020123214690F80102009AEA
:10504000FFF7D6FB20B184F8077201207BE702E06E
:105050000098C4F81802B4F80802C0F30800C0F5BC
:105060000076AE4200D92E4601193246404600F085
:10507000E1FCD4F80802B0443044C4F80802D9F87E
:1050800000008119AD1BC9F80010002D7FF45EAF40
:10509000002058E7FEB50E46044600F089FE0028C1
:1050A00018D1C6B1C4F818D200212046FFF7A2FAE1
:1050B0000025042814D000280CD13146204600F0E9
:1050C000DEFB00212046FFF705FA042802D100206C
:1050D000C4F81052FEBD00212046FFF71AFBFEBDAA
:1050E000C4F81052E9E770B5044600F061FE0028EC
:1050F00011D194F806128A060DD5480612D5D4F8B7
:1051000000020123214690F80102D4F81822FFF78B
:1051100089FB08B1012070BD94F8060220F0400020
:1051200084F80602D4F81C12D4F8000200F092FCB5
:105130000028F0D1D4F82052E87A40F02000E8723C
:1051400094F80C022877B4F80C02000A6877D4F8B7
:105150000C02000CA877D4F80C02000EE877D4F803
:105160001012284604F5007400F062FD00F085FB83
:10517000A875010AE975010C2976000E68760020F1
:10518000A874E874A07920F02000A07121680120A3
:1051900081F804022068BDE8704000F07EBD31B5A2
:1051A000ADF58A6D01220DF58A6180A800F038F90D
:1051B000002815D10DF5886086906846DDF85014FA
:1051C00000F05AFA00280BD102216846FFF720F8B8
:1051D000002805D1859D35B1E87AC00705D00720A4
:1051E0000DF2544D30BD0620FAE72946809800F0B4
:1051F000EDFB040018D0E87AC00615D54FF408720C
:10520000694688A800F016FC022188A8CDF8284439
:10521000FFF77FFA0028E3D1002188A8FFF7EAF919
:105220000028DCD00428DBD16846FFF751FA0028BB
:10523000D6D12CB12146809800F0ACFC0028CFD10B
:10524000809800F02AFDCBE72DE9F84F8846002131
:10525000994615460446196000F0AAFD002808D1B9
:1052600094F80702002804D194F80602800702D4BB
:105270000720BDE8F88FD4F80802012741194FF044
:10528000020A81427BD3B9E0D4F80812C80577D16D
:10529000D4F8002292F80202401E00EA512010F0D9
:1052A000FF061ED131B1D4F8240240B12046FEF7EA
:1052B000F7FF09E0D4F8100240B9002101E0D4F86A
:1052C00014121046FFF710F8002858D001283DD0DE
:1052D000411C6CD0C4F81402D4F8101209B9C4F8F7
:1052E000100294F80602400610D5D4F800020123FB
:1052F000214690F80102D4F81822FFF793FAE8BB90
:1053000094F8060220F0400084F80602D4F8141243
:10531000D4F80002FEF7D9FFC0B130440090680A0B
:105320005FEA000B30D0D4F8000206EB0B0290F8D5
:1053300002128A4201D9A1EB060B90F801025B46EA
:105340004146009AFFF76EFAC0B903E084F807A25D
:1053500002208EE7D4F818120098081A58450CD28B
:1053600008EB40214FF40072204600F063FB94F8F4
:10537000060220F0400084F8060202E017E040E058
:105380001CE04FEA4B262DE0D4F818120098814219
:1053900011D0D4E9820188420DD2D4F80002012351
:1053A000214690F80102009AFFF722FA18B184F81A
:1053B000077201205DE70098C4F81802B4F80802EB
:1053C000C0F30800C0F50076AE4200D92E46204456
:1053D0003246414600F02EFB94F8060240F04000B1
:1053E00084F80602D4F80802B0443044C4F8080235
:1053F000D9F800008119AD1BC9F80010002D7FF409
:1054000043AFD4E98201884201D9C4F80C0294F870
:10541000060240F0200084F80602002029E7000080
:105420002DE9FF474FF000090746C0F800901646E7
:10543000084600F04CFA050003D50B2004B0BDE887
:10544000F0878A4850F82540A4B13C6094F80002E7
:1054500028B194F80102FFF7D9F9C1070CD084F8FC
:105460000092E8B284F80102FFF7A0F9C10708D062
:105470000320E3E70C20E1E70EB1400704D400204D
:10548000DCE71EB1400701D50A20D7E700252946F1
:105490002046FEF78DFE012823D100204FEA0D079C
:1054A00004EB001191F8C22101F5DF712AB10A7AEB
:1054B000D1F8091042EA012100E0002147F820104C
:1054C000401C0428ECD3002657F826502DB129465D
:1054D0002046FEF76DFE08B909E00220761C042E76
:1054E000F2D3032801D0E0BB01E00120A6E7B4F825
:1054F0000B00B0F5007F60D1E28A2AB994F824004D
:10550000D4F8251040EA0122C4F81822217C84F83E
:105510000312012901D002294FD1607B514384F845
:105520000202F0B1431E184247D1B4F81130A4F87A
:1055300008321E0741D1B4F813602EB994F82060E8
:10554000D4F8217046EA0726B4F80EC0BCF1000F6B
:1055500033D00CEB010707EB1317BE422DD3F61B1C
:1055600000E02AE0B6FBF0F038B3012640F6F6780A
:10557000404500D302264FF6F678404500D3032677
:10558000801C2F44C4F82872AC44C4F81402C4E947
:10559000875C032E13D083B16144C4F82412022E19
:1055A00019D000F0010100EB400001EB500000BFFA
:1055B00000F2FF10B2EB502F0FD20D203EE7002B70
:1055C000FBD194F82C10D4F82D30800041EA03214F
:1055D000C4F82412ECE74000EAE74FF0FF30C4F8CB
:1055E0001002C4F80C02802084F80502032E30D18A
:1055F000208E01282DD12046691C00F02BFA40BBDB
:1056000084F80592B4F8FE01A0F52A41553920D15D
:105610002078D4F8011040EA01201549884218D1B9
:1056200094F8E401D4F8E51140EA012011498842D8
:105630000FD194F8E801D4F8E91140EA0120C4F848
:10564000100294F8EC01D4F8ED1140EA0120C4F8FE
:105650000C02064984F80062091F0888401C088073
:10566000A4F806022046FEF709FE08E74C000020D9
:10567000525261417272416173B5044601990878D2
:105680002F2801D05C2801D1491C01910025C4F8C4
:10569000085201980078202806D200212046FFF702
:1056A00038F8C4F814527CBD01A92046FEF774FEF8
:1056B0000028F8D100212046FFF72BF820BB00BFBF
:1056C000D4F81012D4F8000200F0C4F9E0B9D4F80C
:1056D00014120A7832B1CA7A12070FD40A23D4F806
:1056E000182203E004200FE05B1E06D311F8015BD3
:1056F00012F8016BAD1BF7D000E02DB10021204660
:10570000FEF7E8FE0028DBD0D4F81812C97A28B1D9
:105710000428C8D14907C6D405207CBD4907FCD45C
:10572000D4F81412C87AC006F6D5D4F8000200F0F6
:105730004DF9C4F80802B7E730B5ADF5117D05465F
:1057400012A102A8FFF796FB8AA902A8FFF7A2FC04
:105750000FA12846FAF7A0FD0DF231240CE08A993A
:105760002A46CDE9004123460AA11046FAF794FDE6
:105770008AA902A8FFF78EFC9DF831020028EED11D
:1057800002A8FFF772F80DF5117D30BD46494C4572
:105790000000000025733C62723E3C612068726527
:1057A000663D22202573223E25732025643C2F610F
:1057B0003E3C2F62723E0A002DE9F0410D46044640
:1057C00002290DD3D4F81402A84209D994F8000292
:1057D0004FF0FF36012807D002282AD0032836D000
:1057E00001263046BDE8F081D4F8200205EB5507CC
:1057F00000EB5721204600F02DF90028F1D1C7F326
:1058000008007F1C14F80080D4F8200200EB572118
:10581000204600F01FF90028E3D1C7F30800215CFF
:1058200048EA0120E90701D00609DAE7C0F30B06D0
:10583000D7E7D4F8200200EB1521204600F00AF942
:105840000028CED1E8B204EB40000688C9E7D4F8BE
:10585000200200EBD511204600F0FCF80028C0D152
:1058600040F2FF1000EA850020440178D0F80100E2
:1058700041EA002020F07046B3E70020704730B5C1
:10588000D0F8103201F10902F3B1D0F8140200236C
:105890002E25C45C5B1C202C08D0052C00D1E524EF
:1058A000092B01D102F8015B02F8014B0B2BF0D35D
:1058B000C37A0B72037FD0F81D4043EA04230B60C8
:1058C000038B8B80C08AC8800020107030BD10B55B
:1058D00004464FF0FF302268002A13D0114600E042
:1058E000491C0B78212B0ED33A2BF9D112F8013B2E
:1058F000303B0A2B06D28A4204D1002B02D1491C2C
:105900001846216010BD002010BD0000F0B5034610
:10591000254AD3F80042002000EB400552F82560EC
:10592000A6420BD102EB8505D3F808626F68B74237
:1059300004D12D89B3F80662B54202D0401C02287A
:10594000EAD302281AD1002002E0401C022805D226
:1059500000EB400552F82550002DF6D1022815D055
:1059600000EB400542F8254002EB8504D3F80862BD
:105970006660B3F80632238100236381002900EBBF
:10598000400102EB8101498902D019B10020F0BD2C
:10599000491C01E04FF4807100EB400302EB8302ED
:1059A000401C5181F0BD000074160020024600E04A
:1059B000401C0378002BFBD104E000BF10F8013B32
:1059C00000F802398242F9D1417070470246488B93
:1059D00092F80022032A02D1898A40EA01407047E6
:1059E000FCF734FBFEF789F9FDF732FEFDF768FEA0
:1059F000FDF7F2FEFDF71EFEFDF786FEFDF7BAFE8F
:105A0000FEF720F8002207A10748FFF735F90749FC
:105A1000487000F0F9F9012204490548FDF7D8FC67
:105A2000FEE70000303A00001C05002000000020C6
:105A30003016002004E000BF11F8013B00F8013BE4
:105A4000521EF9D27047C9B201E000F8011B521E84
:105A5000FBD2704770B50546D0F82C020C460026E4
:105A6000A04210D0284600F073F906000BD195F83B
:105A70000102012322462946FEF7BAFE08B1741E30
:105A80000126C5F82C42304670BD0FB410B503A9ED
:105A9000029800F0A3F910BC5DF814FB2DE9F04763
:105AA00017460D460446022903D3D4F81402A8422F
:105AB00002D80220BDE8F08794F8001207F0FF0832
:105AC0004FF00109012920D0022950D00329F0D13B
:105AD000D4F8200200EBD5112046FFF7BBFF0028C9
